:1000000009C02FC19CC09BC09AC099C098C097C01E
:1000100096C095C011241FBECFE9CDBF20E0A0E659
:10002000B0E001C01D92A037B207E1F701D04EC188
:1000300087B3856187BB87B3857F87BBC39A81E020
:1000400080936F0085B7826085BF85B78E7F85BF3F
:10005000789480916F008130A9F078F08230B9F007
:1000600086B380916E00882329F17CD080E0C6D0D1
:10007000882391F010926F00ECCF88B3816188BB28
:10008000C298EECFC29A88B38E7E88BBE9CF88B380
:10009000856088BBC498E4CF81E0B0D0882321F08C
:1000A00081E080936F00D5CF82E0A8D0882389F2C9
:1000B00082E0F7CFB399CDCF10926D0080916D00A3
:1000C000B39911C0833078F42FEF8BE49DE1215078
:1000D00080409040E1F700C0000080916D008F5F8C
:1000E00080936D00EBCF8330D9F688B3856088BBF1
:1000F00080916E00811101C0FFCF34D080E05FD0CD
:100100001FD080916E00811101C0FFCF2BD081E004
:1001100056D016D080916E00811101C0FFCF22D041
:1001200082E04DD088B38A7F88BB2FEF8DEE92E0BE
:10013000215080409040E1F700C00000B1CF60CF77
:1001400088B38A7F88BB85EF91E0019721F488B35B
:10015000856088BB0895EFE5F9E03197F1F700C0BD
:100160000000F3CF10926000809160008C3018F591
:1001700010926D00E091600080916D008830B8F4BD
:10018000F0E0EF59FF4FB19903C080818160808317
:100190008081880F80838FEA94E00197F1F700C097
:1001A000000080916D008F5F80936D00E3CFEF5F63
:1001B000E0936000D9CF10926E0078940895CF93A9
:1001C000DF9310926D0090E06CE070E06ED0EC0177
:1001D00080916D008C3078F490E0FC01EF59FF4F76
:1001E000019660818C0F9D1F53D080916D008F5FB1
:1001F00080936D00EDCFDF91CF910895EF92FF9244
:100200000F931F93CF93DF931092600010926D00B5
:1002100090E06CE070E049D07C0110916D0000919D
:1002200060001C3098F4C12FD0E02196CE018E0DD5
:100230009F1D27D0CF59DF4F9881981303C00F5FC0
:10024000009360001F5F10936D00E7CF81E00A30DC
:1002500008F480E0DF91CF911F910F91FF90EF9014
:1002600008951F920F920FB60F9211248F9381E081
:1002700080936E00F8948F910F900FBE0F901F9097
:100280001895E199FECF8EBBE09A99278DB308951A
:10029000262FE199FECF1CBA8EBB2DBB0FB6F8946A
:1002A000E29AE19A0FBE019608950024552704C0F2
:1002B000080E591F880F991F009729F076956795AA
:1002C000B8F37105B9F7802D952F0895F894FFCFF5
:00000001FF
