:1000000009C016C015C014C013C012C011C010C062
:100010000FC00EC011241FBECFE9CDBF20E0A0E667
:10002000B0E001C01D92AF36B207E1F791D023C115
:10003000E7CFB199FECF08951092600091E08091D2
:1000400060008C3000F510926D0080916D0088305A
:10005000A0F4B19906C0E0916000F0E0EF59FF4FC5
:100060009083EFEAF4E03197F1F700C0000080914F
:100070006D008F5F80936D00E8CF809160008F5F8F
:1000800080936000DCCF0895C098C29884EF91E01F
:10009000EFE5F9E03197F1F700C000000197C1F7F3
:1000A000C09AC29A0895CF93DF9310926D0090E0AA
:1000B0006CE070E0CFD0EC0180916D008C3070F47A
:1000C00090E0FC01EF59FF4F60818C0F9D1FB5D070
:1000D00080916D008F5F80936D00EECFDF91CF91A7
:1000E0000895EF92FF920F931F93CF93DF93109297
:1000F000600010926D0090E06CE070E0ABD07C018D
:100100000CE0C0916D0010916000CC30B0F4D0E0F4
:10011000CE018E0D9F1D8AD0CF59DF4F8883882353
:1001200049F01F5F1093600080916D008F5F809396
:100130006D00E7CF00936D00F7CF81E01C3009F030
:1001400080E0DF91CF911F910F91FF90EF90089584
:10015000B89ABA9ABC9ABB98C39AB99881E080932E
:100160006E0080916E00813059F130F1823061F182
:10017000B19B02C0B399FCCF5FDF80E0B2DF882380
:1001800029F110926E00B399ECCF10926D0080911E
:100190006D00B39929C0833038F52FEF8BE49DE1D2
:1001A000215080409040E1F700C0000080916D0038
:1001B0008F5F80936D00EBCFC09AC49AC298D8CF5E
:1001C000C098C498C29AD4CFC09AFBCF81E089DF8F
:1001D000882321F081E080936E00D5CF82E081DF1B
:1001E000882389F282E0F7CF8330E9F488B3856011
:1001F00088BB1FDF21DF80E056DF46DF1ADF1CDF10
:1002000081E051DF41DF15DF17DF82E04CDF88B38B
:100210008A7F88BB2FEF8DEE92E021508040904086
:10022000E1F700C0000010926D0098CFE199FECF79
:100230008EBBE09A99278DB30895262FE199FECFC2
:100240001CBA8EBB2DBB0FB6F894E29AE19A0FBE92
:10025000019608950024552704C0080E591F880FE1
:10026000991F009729F076956795B8F37105B9F74E
:0A027000802D952F0895F894FFCF1C
:00000001FF
