:1000000009C0AEC015C014C013C012C011C010C0CA
:100010000FC00EC011241FBECFE9CDBF20E0A0E667
:10002000B0E001C01D92A237B207E1F7C0D06BC1AA
:10003000E7CF10926F000895789480916F0081113E
:10004000FECFF89481E080936F00089510926000D5
:10005000809160008C3018F510927000E091600083
:10006000809170008830B8F4F0E0EF59FF4FB199FB
:1000700003C08081816080838081880F80838FEAC4
:1000800094E00197F1F700C00000809170008F5F4D
:1000900080937000E3CFEF5FE0936000D9CF0895C5
:1000A000C098C29884EF91E0EFE5F9E03197F1F75D
:1000B00000C000000197C1F7C09AC29A0895CF937B
:1000C000DF931092700090E06CE070E00BD1EC01D7
:1000D000809170008C3070F490E0FC01EF59FF4F7C
:1000E00060818C0F9D1FF1D0809170008F5F809395
:1000F0007000EECFDF91CF910895EF92FF920F93B2
:100100001F93CF93DF93109260001092700090E0E5
:100110006CE070E0E7D07C01C0917000D09160008D
:10012000CC3098F40C2F10E0C8018E0D9F1DC6D066
:10013000F801EF59FF4F9081981303C0DF5FD09310
:100140006000CF5FC0937000E7CF81E0D93008F442
:1001500080E0DF91CF911F910F91FF90EF90089574
:100160001F920F920FB60F9211242F933F934F932C
:100170005F936F937F938F939F93AF93BF93EF930F
:10018000FF93E0916D00F0916E000995FF91EF9162
:10019000BF91AF919F918F917F916F915F914F919F
:1001A0003F912F910F900FBE0F901F901895B89A06
:1001B000BA9ABC9ABB98C39AB99881E080937100AF
:1001C00080936F00F89489E190E090936E008093A3
:1001D0006D00789485B78E7F826085BF8BB7806411
:1001E0008BBFC1E080917100813089F160F1823074
:1001F00091F1789480916F00882311F0B399FCCF2E
:10020000F894C0936F0022DF80E077DF882329F124
:1002100010927100B399E6CF109270008091700037
:10022000B3992AC0833040F52FEF8BE49DE1215034
:1002300080409040E1F700C00000809170008F5F27
:1002400080937000EBCFC09AC49AC298D2CFC09866
:10025000C498C29ACECFC09AFBCF81E04EDF8823EC
:1002600019F0C0937100D6CF82E047DF882391F266
:1002700082E080937100CECF8330E9F488B385604B
:1002800088BBDADEE3DE80E01ADF0ADFD5DEDEDE01
:1002900081E015DF05DFD0DED9DE82E010DF88B334
:1002A0008A7F88BB2FEF8DEE92E0215080409040F6
:1002B000E1F700C00000C093710094CFE199FECF38
:1002C0008EBBE09A99278DB30895262FE199FECF32
:1002D0001CBA8EBB2DBB0FB6F894E29AE19A0FBE02
:1002E000019608950024552704C0080E591F880F51
:1002F000991F009729F076956795B8F37105B9F7BE
:0A030000802D952F0895F894FFCF8B
:00000001FF
