:1000000009C0A9C0A8C039C1A6C0A5C0A4C0A3C0CA
:10001000A2C0A1C011241FBECFE9CDBF20E0A0E641
:10002000B0E001C01D92A437B207E1F701D07FC153
:1000300083E083BF82E089BF12BE789487B3856175
:1000400087BB87B3857F87BBC39A81E080937300AA
:1000500085B78D7F85BF85B78E7F85BF8BB7806461
:100060008BBF8BB78F7D8BBF78948091730081306D
:10007000A9F078F08230B9F086B3809172008823BD
:1000800029F17CD080E0C6D0882391F010927300D3
:10009000ECCF88B3816188BBC298EECFC29A88B397
:1000A0008E7E88BBE9CF88B3856088BBC498E4CFD7
:1000B00081E0B0D0882321F081E080937300D5CF18
:1000C00082E0A8D0882389F282E0F7CFB399CDCF20
:1000D0001092710080917100B39911C0833078F44F
:1000E0002FEF8BE49DE1215080409040E1F700C06C
:1000F0000000809171008F5F80937100EBCF83309F
:10010000D9F688B3856088BB80917200811101C0E7
:10011000FFCF34D080E05FD01FD08091720081117A
:1001200001C0FFCF2BD081E056D016D08091720055
:10013000811101C0FFCF22D082E04DD088B38A7FE9
:1001400088BB2FEF8DEE92E0215080409040E1F788
:1001500000C00000B1CF54CF88B38A7F88BB85EF41
:1001600091E0019721F488B3856088BB0895EFE59D
:10017000F9E03197F1F700C00000F3CF1092600072
:10018000809160008C3018F510927100E091600051
:10019000809171008830B8F4F0E0EF59FF4FB199C9
:1001A00003C08081816080838081880F80838FEA93
:1001B00094E00197F1F700C00000809171008F5F1B
:1001C00080937100E3CFEF5FE0936000D9CF10928E
:1001D000720078940895CF93DF931092710090E0AD
:1001E0006CE070E093D0EC01809171008C3078F479
:1001F00090E0FC01EF59FF4F019660818C0F9D1F2D
:1002000078D0809171008F5F80937100EDCFDF9186
:10021000CF910895EF92FF920F931F93CF93DF93A7
:10022000109260001092710090E06CE070E06ED06F
:100230007C0110917100009160001C3098F4C12F76
:10024000D0E02196CE018E0D9F1D4CD0CF59DF4FAF
:100250009881981303C00F5F009360001F5F109395
:100260007100E7CF81E00A3008F480E0DF91CF91A0
:100270001F910F91FF90EF9008951F920F920FB66C
:100280000F9211248F939F93AF93BF9380916D0032
:1002900090916E00A0916F00B09170000196A11D29
:1002A000B11D80936D0090936E00A0936F00B0938A
:1002B0007000BF91AF919F918F910F900FBE0F90E3
:1002C0001F9018951F920F920FB60F9211248F93C3
:1002D00081E080937200F8948F910F900FBE0F9081
:1002E0001F901895E199FECF8EBBE09A99278DB3A8
:1002F0000895262FE199FECF1CBA8EBB2DBB0FB6F9
:10030000F894E29AE19A0FBE0196089500245527C9
:1003100004C0080E591F880F991F009729F0769581
:100320006795B8F37105B9F7802D952F0895F89466
:02033000FFCFFD
:00000001FF
