:1000000009C016C015C014C013C012C011C010C062
:100010000FC00EC011241FBECFE9CDBF20E0A0E667
:10002000B0E001C01D92AF36B207E1F790D027C112
:10003000E7CFB199FECF08951092600080916000E3
:100040008C3018F510926D00E091600080916D0089
:100050008830B8F4F0E0EF59FF4FB19903C08081C8
:10006000816080838081880F80838FEA94E001978C
:10007000F1F700C0000080916D008F5F80936D00EC
:10008000E3CFEF5FE0936000D9CF0895C098C298A6
:1000900084EF91E0EFE5F9E03197F1F700C000005F
:1000A0000197C1F7C09AC29A0895EF92FF920F93F9
:1000B0001F93CF93DF931092600010926D0090E039
:1000C0006CE070E0CBD07C0110916D00009160007D
:1000D0001C3098F4C12FD0E02196CE018E0D9F1DCB
:1000E000A9D0CF59DF4F9881981303C00F5F0093B9
:1000F00060001F5F10936D00E7CF81E0093008F4C6
:1001000080E0DF91CF911F910F91FF90EF900895C4
:10011000CF93DF9310926D0090E06CE070E09ED082
:10012000EC0180916D008C3078F490E0FC01EF5987
:10013000FF4F019660818C0F9D1F83D080916D00D1
:100140008F5F80936D00EDCFDF91CF910895B89AC6
:10015000BA9ABC9ABB98C39AB99890E080E06AD0EA
:100160008F3708F481BF81E080936E0080916E002C
:10017000813059F130F1823061F1B19B02C0B39905
:10018000FCCF5ADF80E091DF882329F110926E00C6
:10019000B399ECCF10926D0080916D00B39929C096
:1001A000833038F52FEF8BE49DE121508040904063
:1001B000E1F700C0000080916D008F5F80936D00BB
:1001C000EBCFC09AC49AC298D8CFC098C498C29AAC
:1001D000D4CFC09AFBCF81E068DF882321F081E093
:1001E00080936E00D5CF82E060DF882389F282E0C1
:1001F000F7CF833009F0B7CF88B3856088BB19DFAC
:100200001BDF80E085DF42DF14DF16DF81E080DF67
:100210003DDF0FDF11DF82E07BDF88B38A7F88BBA1
:100220002FEF8DEE92E0215080409040E1F700C02A
:10023000000099CFE199FECF8EBBE09A99278DB34C
:100240000895262FE199FECF1CBA8EBB2DBB0FB6A9
:10025000F894E29AE19A0FBE01960895002455277A
:1002600004C0080E591F880F991F009729F0769532
:100270006795B8F37105B9F7802D952F0895F89417
:02028000FFCFAE
:00000001FF
