:1000000009C016C015C014C013C012C011C010C062
:100010000FC00EC011241FBECFE9CDBF20E0A0E667
:10002000B0E001C01D92AF36B207E1F78FD020C11A
:10003000E7CFB199FECF08951092600080916000E3
:100040008C3018F510926D00E091600080916D0089
:100050008830B8F4F0E0EF59FF4FB19903C08081C8
:10006000816080838081880F80838FEA94E001978C
:10007000F1F700C0000080916D008F5F80936D00EC
:10008000E3CFEF5FE0936000D9CF0895C098C298A6
:1000900084EF91E0EFE5F9E03197F1F700C000005F
:1000A0000197C1F7C09AC29A0895CF93DF93109237
:1000B0006D0090E06CE070E0CAD0EC0180916D00C2
:1000C0008C3070F490E0FC01EF59FF4F60818C0F91
:1000D0009D1FB0D080916D008F5F80936D00EECF3B
:1000E000DF91CF910895EF92FF920F931F93CF93DB
:1000F000DF931092600010926D0090E06CE070E071
:10010000A6D07C01C0916D00D0916000CC3098F4F5
:100110000C2F10E0C8018E0D9F1D85D0F801EF59FE
:10012000FF4F9081981303C0DF5FD0936000CF5FD3
:10013000C0936D00E7CF81E0D93008F480E0DF9113
:10014000CF911F910F91FF90EF900895B89ABA9AAE
:10015000BC9ABB98C39AB99881E080936E00809155
:100160006E00813059F130F1823061F1B19B02C0F3
:10017000B399FCCF61DF80E0B6DF882329F11092CC
:100180006E00B399ECCF10926D0080916D00B39921
:1001900029C0833038F52FEF8BE49DE1215080405A
:1001A0009040E1F700C0000080916D008F5F809368
:1001B0006D00EBCFC09AC49AC298D8CFC098C498AB
:1001C000C29AD4CFC09AFBCF81E08DDF882321F083
:1001D00081E080936E00D5CF82E085DF882389F2AD
:1001E00082E0F7CF833009F0B7CF88B3856088BB52
:1001F00020DF22DF80E059DF49DF1BDF1DDF81E0E8
:1002000054DF44DF16DF18DF82E04FDF88B38A7FD8
:1002100088BB2FEF8DEE92E0215080409040E1F7B7
:1002200000C0000099CFE199FECF8EBBE09A9927DC
:100230008DB30895262FE199FECF1CBA8EBB2DBB3E
:100240000FB6F894E29AE19A0FBE01960895002441
:10025000552704C0080E591F880F991F009729F0D1
:1002600076956795B8F37105B9F7802D952F0895A8
:04027000F894FFCF30
:00000001FF
